{
  "contractName": "Crowdfunding",
  "abi": [
    {
      "inputs": [],
      "payable": false,
      "stateMutability": "nonpayable",
      "type": "constructor"
    },
    {
      "payable": true,
      "stateMutability": "payable",
      "type": "fallback"
    },
    {
      "constant": true,
      "inputs": [],
      "name": "author",
      "outputs": [
        {
          "internalType": "address",
          "name": "",
          "type": "address"
        }
      ],
      "payable": false,
      "stateMutability": "view",
      "type": "function"
    },
    {
      "constant": true,
      "inputs": [],
      "name": "closed",
      "outputs": [
        {
          "internalType": "bool",
          "name": "",
          "type": "bool"
        }
      ],
      "payable": false,
      "stateMutability": "view",
      "type": "function"
    },
    {
      "constant": true,
      "inputs": [],
      "name": "endTime",
      "outputs": [
        {
          "internalType": "uint256",
          "name": "",
          "type": "uint256"
        }
      ],
      "payable": false,
      "stateMutability": "view",
      "type": "function"
    },
    {
      "constant": true,
      "inputs": [
        {
          "internalType": "address",
          "name": "",
          "type": "address"
        }
      ],
      "name": "joined",
      "outputs": [
        {
          "internalType": "uint256",
          "name": "",
          "type": "uint256"
        }
      ],
      "payable": false,
      "stateMutability": "view",
      "type": "function"
    },
    {
      "constant": true,
      "inputs": [],
      "name": "price",
      "outputs": [
        {
          "internalType": "uint256",
          "name": "",
          "type": "uint256"
        }
      ],
      "payable": false,
      "stateMutability": "view",
      "type": "function"
    },
    {
      "constant": false,
      "inputs": [],
      "name": "withdrawFund",
      "outputs": [],
      "payable": false,
      "stateMutability": "nonpayable",
      "type": "function"
    },
    {
      "constant": false,
      "inputs": [],
      "name": "withdraw",
      "outputs": [],
      "payable": false,
      "stateMutability": "nonpayable",
      "type": "function"
    }
  ],
  "bytecode": "0x608060405265b5e620f480006003556000600460006101000a81548160ff02191690831515021790555034801561003557600080fd5b50336000806101000a81548173ffffffffffffffffffffffffffffffffffffffff021916908373ffffffffffffffffffffffffffffffffffffffff16021790555062278d00420160028190555061085d806100916000396000f3fe6080604052600436106100705760003560e01c8063a035b1fe1161004e578063a035b1fe146102ec578063a6c3e6b914610317578063e07fa3c11461036e578063f887d0191461038557610070565b80633197cbb61461027b5780633ccfd60b146102a6578063597e1fb5146102bd575b6002544210801561008e5750600460009054906101000a900460ff16155b610100576040517f08c379a000000000000000000000000000000000000000000000000000000000815260040180806020018281038252600f8152602001807fe4bc97e7adb9e5b7b2e7bb93e69d9f000000000000000000000000000000000081525060200191505060405180910390fd5b6000600160003373ffffffffffffffffffffffffffffffffffffffff1673ffffffffffffffffffffffffffffffffffffffff16815260200190815260200160002054146101b5576040517f08c379a00000000000000000000000000000000000000000000000000000000081526004018080602001828103825260188152602001807fe4bda0e5b7b2e7bb8fe58f82e4b88ee8bf87e4bc97e7adb9000000000000000081525060200191505060405180910390fd5b60035434101561022d576040517f08c379a000000000000000000000000000000000000000000000000000000000815260040180806020018281038252600f8152602001807fe587bae4bbb7e5a4aae4bd8ee4ba86000000000000000000000000000000000081525060200191505060405180910390fd5b34600160003373ffffffffffffffffffffffffffffffffffffffff1673ffffffffffffffffffffffffffffffffffffffff168152602001908152602001600020819055506102796103ea565b005b34801561028757600080fd5b5061029061041b565b6040518082815260200191505060405180910390f35b3480156102b257600080fd5b506102bb610421565b005b3480156102c957600080fd5b506102d26105e6565b604051808215151515815260200191505060405180910390f35b3480156102f857600080fd5b506103016105f9565b6040518082815260200191505060405180910390f35b34801561032357600080fd5b5061032c6105ff565b604051808273ffffffffffffffffffffffffffffffffffffffff1673ffffffffffffffffffffffffffffffffffffffff16815260200191505060405180910390f35b34801561037a57600080fd5b50610383610624565b005b34801561039157600080fd5b506103d4600480360360208110156103a857600080fd5b81019080803573ffffffffffffffffffffffffffffffffffffffff1690602001909291905050506107c8565b6040518082815260200191505060405180910390f35b600066071afd498d0000670de0b6b3a7640000478161040557fe5b040290508065b5e620f480000160038190555050565b60025481565b6002544211610498576040517f08c379a000000000000000000000000000000000000000000000000000000000815260040180806020018281038252601b8152602001807fe8bf98e69caae588b0e4bc97e7adb9e7bb93e69d9fe697b6e997b4000000000081525060200191505060405180910390fd5b600460009054906101000a900460ff16156104fe576040517f08c379a00000000000000000000000000000000000000000000000000000000081526004018080602001828103825260248152602001806108056024913960400191505060405180910390fd5b4767016345785d8a00001161055e576040517f08c379a00000000000000000000000000000000000000000000000000000000081526004018080602001828103825260248152602001806107e16024913960400191505060405180910390fd5b3373ffffffffffffffffffffffffffffffffffffffff166108fc600160003373ffffffffffffffffffffffffffffffffffffffff1673ffffffffffffffffffffffffffffffffffffffff168152602001908152602001600020549081150290604051600060405180830381858888f193505050501580156105e3573d6000803e3d6000fd5b50565b600460009054906101000a900460ff1681565b60035481565b6000809054906101000a900473ffffffffffffffffffffffffffffffffffffffff1681565b6000809054906101000a900473ffffffffffffffffffffffffffffffffffffffff1673ffffffffffffffffffffffffffffffffffffffff163373ffffffffffffffffffffffffffffffffffffffff16146106e6576040517f08c379a000000000000000000000000000000000000000000000000000000000815260040180806020018281038252600f8152602001807fe4bda0e4b88de698afe4bd9ce88085000000000000000000000000000000000081525060200191505060405180910390fd5b67016345785d8a0000471015610764576040517f08c379a00000000000000000000000000000000000000000000000000000000081526004018080602001828103825260158152602001807fe69caae8bebee588b0e4bc97e7adb9e79baee6a087000000000000000000000081525060200191505060405180910390fd5b6001600460006101000a81548160ff0219169083151502179055503373ffffffffffffffffffffffffffffffffffffffff166108fc479081150290604051600060405180830381858888f193505050501580156107c5573d6000803e3d6000fd5b50565b6001602052806000526040600020600091509050548156fee4bc97e7adb9e8bebee6a087efbc8ce4bda0e6b2a1e6b395e68f90e58f96e8b584e98791e4bc97e7adb9e8bebee6a087efbc8ce4bc97e7adb9e8b584e98791e5b7b2e68f90e58f96a265627a7a7231582058260502cb82aa376390a7ca15380a2e0a78e4051c6931563683598332466a4464736f6c63430005100032",
  "source": "// SPDX-License-Identifier: MIT\npragma solidity >=0.4.21 <0.9.0;\n\ncontract Crowdfunding {\n    // 创作者\n    address public author;\n\n    // 参与金额\n    mapping(address => uint) public joined;\n\n    // 众筹目标\n    uint constant Target = 0.1 ether;\n\n    // 众筹截止时间\n    uint public endTime;\n\n    // 记录当前众筹价格\n    uint public price  = 0.0002 ether;\n\n    // 作者提取资金之后，关闭众筹\n    bool public closed = false;\n\n    // 部署合约时调用，初始化作者以及众筹结束时间\n    constructor() public {\n        author = msg.sender;\n        endTime = now + 30 days;\n    }\n\n    // 更新价格，这是一个内部函数\n    function updatePrice() internal {\n        uint rise = address(this).balance / 1 ether * 0.002 ether;\n        price = 0.0002 ether + rise;\n    }\n\n    // 用户向合约转账时 触发的回调函数\n    function () external payable {\n        require(now < endTime && !closed  , \"众筹已结束\");\n        require(joined[msg.sender] == 0 , \"你已经参与过众筹\");\n        require (msg.value >= price, \"出价太低了\");\n        joined[msg.sender] = msg.value;\n        updatePrice();\n    } \n\n    // 作者提取资金\n    function withdrawFund() external {\n        require(msg.sender == author, \"你不是作者\");\n        require(address(this).balance >= Target, \"未达到众筹目标\");\n        closed = true;   \n        msg.sender.transfer(address(this).balance);\n    }\n\n    // 读者赎回资金\n    function withdraw() external {\n        require(now > endTime, \"还未到众筹结束时间\");\n        require(!closed, \"众筹达标，众筹资金已提取\");\n        require(Target > address(this).balance, \"众筹达标，你没法提取资金\");\n        msg.sender.transfer(joined[msg.sender]);\n    }\n\n}\n\n",
  "sourcePath": "/Users/onee/Workspace/onee/crowdfunding/contracts/Crowdfunding.sol",
  "compiler": {
    "name": "solc",
    "version": "0.5.16+commit.9c3226ce.Emscripten.clang"
  },
  "schemaVersion": "3.3.4",
  "updatedAt": "2021-05-09T09:17:13.137Z",
  "networkType": "ethereum",
  "devdoc": {
    "methods": {}
  },
  "userdoc": {
    "methods": {}
  }
}